:100000000C9434000C9451000C9451000C94510049
:100010000C9451000C9451000C9451000C9451001C
:100020000C9451000C9451000C9451000C9451000C
:100030000C9451000C9451000C9420010C9451002C
:100040000C9451000C9451000C9451000C945100EC
:100050000C9451000C9451000C9451000C945100DC
:100060000C9451000C94510011241FBECFEFD8E026
:10007000DEBFCDBF13E0A0E0B1E0E8E5F1E102C0F2
:1000800005900D92A630B107D9F723E0A6E0B3E0C2
:1000900001C01D92A232B207E1F70E9443010C9405
:1000A000AA080C9400009091C00095FFFCCF8093AB
:1000B000C6000895CF93DF93EC018881811103C0BE
:1000C000DF91CF91089521960E945300F6CF0E94B0
:1000D0005A008DE00E9453008AE00C94530094EA89
:1000E0009093BC009091BC0097FFFCCF8093BB0025
:1000F00084E88093BC008091BC0087FFFCCF909186
:10010000B900987F21E0903409F020E081E0983137
:1001100009F080E0822B089584EC8093BC008091EC
:10012000BC0087FFFCCF8091BB00089528E730E03A
:1001300099274B999395981749F095E09A95F1F77F
:10014000000021503040A1F780E0089581E008953B
:100150008093BB0084E88093BC008091BC0087FF43
:10016000FCCF8091B9000895CF93DF930F92CDB764
:10017000DEB789838EE40E946F00811531F089819A
:100180000E94A80084E98093BC000F90DF91CF917A
:100190000895CF93C82F611119C0C8608C2F0E9499
:1001A000B4008C2F8C600E94B40085E08A95F1F732
:1001B00000008C2F837F88600E94B40087EC90E061
:1001C0000197F1F700C00000CF910895C960E6CF14
:1001D000CF93C82F60E0807F0E94C90060E08C2F21
:1001E0008295807F0E94C90087EC90E00197F1F72B
:1001F00000C00000CF9108951F93CF93DF93EC01CF
:100200001881111104C0DF91CF911F91089521969B
:1002100061E0812F807F0E94C90061E0812F82957B
:10022000807F0E94C90087EC90E00197F1F700C041
:100230000000E6CF811511F0289A089528980895B6
:100240001F921FB61F9211248F939F93AF93BF935A
:100250008091060390910703A0910803B0910903D0
:100260000196A11DB11D8093060390930703A093EF
:100270000803B0930903BF91AF919F918F911F9095
:100280001FBE1F901895CDB7DEB7A3970FB6F89491
:10029000DEBF0FBECDBF52988AB1806C8AB984B1DF
:1002A0008F6084B98BB18F738BB985B1827F85B92B
:1002B000299A82E084BD93E095BD99EF97BD809324
:1002C0006E0080E480937C0087E880937A0010922F
:1002D000B90088E48093B8001092C50087E6809347
:1002E000C40088E18093C10086E08093C2007894C6
:1002F0002FEF30E742E0215030404040E1F700C0AE
:10030000000060E080E30E94C9008FE19EE4019755
:10031000F1F700C0000060E080E30E94C900E7E55B
:10032000F2E03197F1F700C0000060E080E30E9446
:10033000C90087E592E00197F1F700C0000060E096
:1003400080E20E94C90088E20E94E8008CE00E94DE
:10035000E80086E00E94E80081E00E94E800EFE308
:10036000FFE13197F1F700C0000081E00E94E80052
:100370008FE39FE10197F1F700C0000080E80E9441
:10038000E80085EF91E00E94FC0080EC0E94E8000C
:1003900085E092E00E94FC0080ED0E946F008115D4
:1003A00049F08BE60E94A80080E00E94A80084E942
:1003B0008093BC009FEFE1EEF4E09150E040F0400C
:1003C000E1F700C0000084E192E00E9467002FEF97
:1003D00037E843E1215030404040E1F700C00000E1
:1003E00087E192E00E9467005FEF67E873E1515098
:1003F00060407040E1F700C0000081E292E00E949E
:1004000067008FEF97E8E3E181509040E040E1F72B
:1004100000C00000FFEF27E93AE3F15020403040F0
:10042000E1F700C0000081E00E94E8008FE39FE157
:100430000197F1F700C0000080E80E94E8008FE219
:1004400092E00E94FC0080EC0E94E8008BE392E0C6
:100450000E94FC008E010F5F1F4F3E0192E1690E6A
:10046000711CF8948090060390900703A0900803F5
:10047000B090090378948091110390911203A09198
:100480001303B09114039401A501281B390B4A0BE7
:100490005B0BC901DA01843F9140A105B10508F366
:1004A0008092110390921203A0921303B09214034E
:1004B000B401C50124EF31E040E050E00E946D0539
:1004C0002170F22EF0920C03B401C50128EC30E04B
:1004D00040E050E00E946D05217020930B03F092E4
:1004E0000A0380917C00807F80937C0080917A0059
:1004F000806480937A0080917A0086FBFF24F6F86E
:1005000086FDF9CF80917800909179008093200347
:100510009093210388274A9B839580931F0385E04E
:10052000F80111928A95E9F7539A5B988FE39FE15E
:100530000197F1F700C000005B9A90EA9A95F1F7F5
:10054000539880E00E949600811509F44EC081E026
:100550000E949600811509F448C080E00E94960030
:10056000811509F442C081E00E9496008115E9F1ED
:10057000EAEBEA95F1F700C0EF2DE695E695E695F2
:10058000E00FF12FF11D8081880F80834B9B02C00B
:100590008160808380E00E949600811531F1F394A0
:1005A000F8E2FF12E0CF89819A81890F9B81890F40
:1005B0009C81890F9D81891318C08B819C81298121
:1005C0003A8132272327322798278927982797FFB0
:1005D00004C09F7791958195910980931D03909315
:1005E0001E0320931B0330931C0380ED0E946F00B9
:1005F00081116BC090E420E030E0A90160E070E080
:1006000037FF03C0319521953109420F531F611DFA
:10061000711DA92FAA0FAA0BBA2F9054A109B109D5
:100620003AF4B095A095909581959F4FAF4FBF4FED
:10063000840F951FA61FB71F80931703909318036D
:10064000A0931903B0931A031092160320911F036D
:10065000211519F021E020931603209120033091F9
:1006600021032139314028F0209116032260209384
:10067000160320911D0330911E032F3531402CF0BD
:100680002091160324602093160389399A43A1050B
:10069000B1052CF080911603886080931603809139
:1006A000160381FF43C05E9A8091160380FF40C00D
:1006B0005F9A8091160381113DC0299A85B1837F8D
:1006C00085B980E00E941A0146C08BE30E94A80011
:1006D00081ED0E946F00811509F48CCF0E948C007F
:1006E000E82E0E948C00F82E0E948C00C82E0E94DA
:1006F0008C008BA30E948C00482F84E88093BC0060
:100700008091BC0087FFFCCF8091BB0094E990935F
:10071000BC006BA17C2D9B01942FEF2DFE2DAF0112
:10072000E7FE6CCF51954195510968CF5E98BCCFDB
:100730005F98BFCF837009F482C080910B0381154D
:1007400009F479C02B9A2998809116038C7009F4CA
:1007500074C02A9A289A809116038111B4C080919E
:1007600021038F93809120038F9380911B0390919D
:100770001C036AE070E00E9459057F936F9380919B
:100780001D0390911E036AE070E00E9459057F935B
:100790006F9368E472E07F936F931F9261E1F62E8E
:1007A000FF927F926F920E94A30580911A038F930C
:1007B000809119038F93809118038F938091170371
:1007C0008F93EBE5F2E0FF93EF931F92FF921F935D
:1007D0000F930E94A30580E80E94E80087E692E05C
:1007E0000E94FC0080E80E94E800C3010E94FC0017
:1007F00080EC0E94E80087E692E00E94FC0080EC1A
:100800000E94E800C8010E94FC000FB6F894DEBF09
:100810000FBECDBF8DE0E8EFF2E0D80101900D9260
:100820008A95E1F7209116032111BBC08091160330
:100830008093150316CE2B9886CF2A988BCF85B13F
:10084000857F85B980910C038115E1F02A9A80910A
:10085000160382FF19C0B401C50128EE33E040E061
:1008600050E00E946D05B901CA012AE030E040E085
:1008700050E00E946D0521E0672B682B692B01F188
:1008800020E01EC02A98E3CF83FF1BCFB401C5012F
:1008900028E833E140E050E00E946D0521E0683C2B
:1008A00071058105910560F0DC01CB01835C91400D
:1008B000A109B10921E0873C9105A105B10500F727
:1008C000822F0E941A0180910A0381110FC080E8D3
:1008D0000E94E80087E692E00E94FC0080EC0E9403
:1008E000E80087E692E00E94FC0094CF80E80E9436
:1008F000E80087E692E00E94FC0080EC0E94E8009D
:1009000087E692E00E94FC008091160380FF1CC0E5
:1009100081FF0DC080E80E94E80088E792E00E9415
:10092000FC0080EC0E94E80085E892E0DCCF80E8E3
:100930000E94E8008FE892E00E94FC0080EC0E9498
:10094000E8008AE992E0CFCF81FF0DC080E80E94E5
:10095000E80086EA92E00E94FC0080EC0E94E80039
:1009600082EB92E0C0CF82FF0DC080E80E94E800D9
:100970008DEB92E00E94FC0080EC0E94E80087EC86
:1009800092E0B1CF83FF46CF80E80E94E80082ED7D
:1009900092E00E94FC0080EC0E94E80082EE92E06F
:1009A000A2CF30911503F89480910603909107032C
:1009B000A0910803B09109037894231312C04091C9
:1009C0000D0350910E0360910F0370911003841B6F
:1009D000950BA60BB70B80369A4EA105B10508F40E
:1009E00025CF8091160380FF4DC050E0E52E51E0E9
:1009F000F52E81FD04C036E3E32E31E0F32E87E1CE
:100A000092E00E9467006FEF75EA8EE061507040DF
:100A10008040E1F700C000008EEE92E00E945A0094
:100A2000C8010E945A0086EF92E00E9467009FEF83
:100A3000E9E6F8E19150E040F040E1F700C0000045
:100A4000C7010E945A008AE10E9453002FEF3FE441
:100A500043EC215030404040E1F700C00000F894E2
:100A60008091060390910703A0910803B0910903B8
:100A7000789480930D0390930E03A0930F03B0938B
:100A80001003D4CE2CE5E22E21E0F22E81FDB7CF6B
:100A90009AE8E92E91E0F92E82FDB1CF48EBE42EE1
:100AA00041E0F42E83FFABCF87ECE82E81E0F82EF7
:100AB000A6CF97FB072E16F4009407D077FD09D038
:100AC0000E948F0507FC05D03EF4909581959F4FBD
:100AD0000895709561957F4F0895A1E21A2EAA1B83
:100AE000BB1BFD010DC0AA1FBB1FEE1FFF1FA217DE
:100AF000B307E407F50720F0A21BB30BE40BF50BDB
:100B0000661F771F881F991F1A9469F76095709563
:100B1000809590959B01AC01BD01CF010895AA1B62
:100B2000BB1B51E107C0AA1FBB1FA617B70710F0D8
:100B3000A61BB70B881F991F5A95A9F7809590950A
:100B4000BC01CD010895AEE0B0E0E9EAF5E00C9417
:100B5000830886E08C832B893C8929833A838D899D
:100B60009E89813030E8930710F080E090E801978B
:100B70008D839E83AE01475E5F4F6F89788DCE0176
:100B800001960E94D6054D815E8157FD0BC0EF8115
:100B9000F8854E175F070CF4FA012B893C89E20FA8
:100BA000F31F10822E96E2E00C949F08ABE0B0E0B9
:100BB000ECEDF5E00C9476086C017B018A01FC01F8
:100BC00016821782838181FFDFC13AE0532EF6013E
:100BD0002381F70123FD859123FF81917F018115F9
:100BE00009F437C1853239F423FD959123FF9191A2
:100BF0007F01953229F4B60190E00E94DD07E7CF2E
:100C000030E0912C612C712CF0E27F1640F59B3284
:100C1000D9F058F49032D1F09332F1F09E3291F540
:100C200076FC17C1689476F806C09D3291F0903337
:100C3000C1F4689470F8F70123FD959123FF919119
:100C40007F019111E1CF28C0689471F8689472F81F
:100C5000F2CF689473F8EFCF689474F8ECCF77FC18
:100C60001BC080ED890F8A30C8F676FE05C0959CC2
:100C7000800D1124982EDFCF659C800D1124682EE5
:100C80007F2AD9CF9C3619F4689477F8D4CF9C3456
:100C900009F445C0983679F2892F8F7D85548330C9
:100CA00008F43FC0933609F461C0933709F46BC070
:100CB000933509F477C0943619F0993609F0A4C039
:100CC000F80177FE9AC061917191819191918F01A4
:100CD000272D2F76822E97FF04C00E946B08689400
:100CE00087F82AE030E05E014FEFA41AB40AA501AC
:100CF0000E940D08782E7A1886FECFC0882D8E7F30
:100D0000791408F0C9C084FE1DC182FC11C12EEE09
:100D10008222B92C882D867809F4CBC00EC131E02F
:100D20008ACF311501F1085F1F4F8FE3898321E0DE
:100D3000822E912C5E012FEFA21AB20AE89477F866
:100D400073FC03C086149104F0F18114910409F03E
:100D500041C0611409F43BCFB60180E290E00E94EB
:100D6000DD076A94F6CF0C5F1F4FDFCFF80180815B
:100D700089830E5F1F4F91E0892E912C5E01FFEF5A
:100D8000AF1ABF0ADBCFF801A190B1908F01692D96
:100D900070E076FC02C06FEF7FEFC5010E94D207C2
:100DA0004C01CCCFF801A190B1908F01692D70E07A
:100DB00076FC02C06FEF7FEFC5010E94C7074C01B0
:100DC000689477F8BDCFB60180E290E00E94DD071D
:100DD0006A94B8CFF50177FC859177FE81915F0128
:100DE000B60190E00E94DD0781E0611001C080E063
:100DF000681AF1E08F1A9108A8CF61917191872F3D
:100E0000880F880B982F63CF9537C9F4872CE89407
:100E100084F82AE030E0F80187FE39C061917191D1
:100E2000819191918F015E01FFEFAF1ABF0AA50179
:100E30000E940D08782E7A18E89487F85DCF872DE8
:100E4000897F882E903799F058F49835A9F09F360D
:100E5000D9F0F601868197812B96EFE00C949208E9
:100E60009837B9F774FC05C020E130E0D4CF68941E
:100E700084F8689482F8F8CF74FE03C0E72DE6602A
:100E80008E2E20E132E0C7CF28E030E0C4CF619160
:100E9000719180E090E0C6CF882EB72C84FE3ACFC7
:100EA000FE01E70DF11D8081803309F044C049EE59
:100EB000842283FC0EC080FE51C0972CB61418F417
:100EC000960C9B18B62C862D8B196B1408F480E0B9
:100ED000B80EB61408F044C06B1884FE43C0B601C7
:100EE00080E390E00E94DD0782FE09C088E590E083
:100EF00081FC02C088E790E0B6010E94DD0779140A
:100F0000E0F15E018FEFA81AB80A7A9482E0882E89
:100F1000912C8C0E9D1E870C911CF40182914F0127
:100F2000B60190E00E94DD078A149B04B1F711CF4F
:100F3000B92C882EB5CF82FC02C0B394BACFB3943B
:100F4000B394B7CFB92C882EE5CEB60180E290E0FD
:100F50000E94DD07A394A614C0F3B5CFAB2CFBCF42
:100F6000612CBBCF882D867851F280E281FC8BE228
:100F700087FC8DE2B60190E0C0CFB60180E390E03F
:100F80000E94DD079A94BBCF8FEF9FEF65CFFC01E6
:100F90000590615070400110D8F7809590958E0FA4
:100FA0009F1F0895FC016150704001900110D8F717
:100FB000809590958E0F9F1F08950F931F93CF9349
:100FC000DF93182F092FEB018B8181FD09C00FEFF3
:100FD0001FEF812F902FDF91CF911F910F910895D7
:100FE00082FF14C02E813F818C819D812817390793
:100FF0003CF4E881F981CF010196888399831083BD
:101000008E819F8101968E839F83E3CFE885F9854A
:10101000812F0995892BA1F3DACFFA01AA2728306D
:1010200051F1203181F1E8946F936E7F6E5F7F4FB5
:101030008F4F9F4FAF4FB1E03ED0B4E03CD0670F31
:10104000781F891F9A1FA11D680F791F8A1F911D84
:10105000A11D6A0F711D811D911DA11D20D009F4D4
:1010600068943F912AE0269F11243019305D319316
:10107000DEF6CF010895462F4770405D4193B3E0FF
:101080000FD0C9F7F6CF462F4F70405D4A3318F0A6
:10109000495D31FD4052419302D0A9F7EACFB4E057
:1010A000A6959795879577956795BA95C9F700970F
:1010B0006105710508959B01AC010A2E06945795B0
:1010C000479537952795BA95C9F7620F731F841F07
:1010D000951FA01D089590958095709561957F4FFF
:1010E0008F4F9F4F08952F923F924F925F926F9232
:1010F0007F928F929F92AF92BF92CF92DF92EF92A8
:10110000FF920F931F93CF93DF93CDB7DEB7CA1B28
:10111000DB0B0FB6F894DEBF0FBECDBF09942A8853
:10112000398848885F846E847D848C849B84AA84FB
:10113000B984C884DF80EE80FD800C811B81AA8188
:10114000B981CE0FD11D0FB6F894DEBF0FBECDBF53
:08115000ED010895F894FFCFB2
:10115800435249544943414C3A2046495245202B71
:1011680020534D4F4B452064657465637465642E48
:101178002050756D7020616E642066616E20616319
:10118800746976652E00414C4552543A204669727E
:10119800652064657465637465642E2050756D7090
:1011A800206163746976617465642E00414C455210
:1011B800543A20536D6F6B652F67617320686967B8
:1011C800682E20457868617573742066616E2061A9
:1011D80063746976617465642E005761726E696E16
:1011E800673A20486967682074656D706572617434
:1011F80075726520696E2070726F63657373696EAE
:101208006720617265612E0053797374656D20776C
:1012180061726E696E67005761726E696E673A2017
:1012280041626E6F726D616C206D616368696E6595
:1012380020766962726174696F6E20646574656393
:101248007465642E0053797374656D2053746172EC
:1012580074696E6700506C656173652077616974A5
:101268002E2E2E0041540041542B434D47463D310C
:101278000041542B435343533D2247534D220054BE
:10128800656120466163746F7279005361666574A5
:101298007920526561647900543A253264432048C4
:1012A8003A25326420473A25337500563A25356C7D
:1012B8006420534146450020202020202020202063
:1012C800202020202020200046495245202B205352
:1012D8004D4F4B4500454D455247454E43590046F5
:1012E80049524520414C4552540050554D502041DB
:1012F800435449564500534D4F4B4520414C4552A8
:10130800540046414E2041435449564500484947F8
:10131800482054454D5000434845434B20415245D1
:101328004100564942524154494F4E20414C455282
:1013380054004D41494E54454E414E434500415499
:101348002B434D47533D22002B3934373139313542
:06135800373934380000B3
:00000001FF
